{
  "_format": "hh-sol-artifact-1",
  "contractName": "Insignia",
  "sourceName": "contracts/Insignia.sol",
  "abi": [
    {
      "inputs": [],
      "stateMutability": "nonpayable",
      "type": "constructor"
    },
    {
      "anonymous": false,
      "inputs": [
        {
          "indexed": true,
          "internalType": "address",
          "name": "owner",
          "type": "address"
        },
        {
          "indexed": true,
          "internalType": "address",
          "name": "approved",
          "type": "address"
        },
        {
          "indexed": true,
          "internalType": "uint256",
          "name": "tokenId",
          "type": "uint256"
        }
      ],
      "name": "Approval",
      "type": "event"
    },
    {
      "anonymous": false,
      "inputs": [
        {
          "indexed": true,
          "internalType": "address",
          "name": "owner",
          "type": "address"
        },
        {
          "indexed": true,
          "internalType": "address",
          "name": "operator",
          "type": "address"
        },
        {
          "indexed": false,
          "internalType": "bool",
          "name": "approved",
          "type": "bool"
        }
      ],
      "name": "ApprovalForAll",
      "type": "event"
    },
    {
      "anonymous": false,
      "inputs": [
        {
          "indexed": true,
          "internalType": "address",
          "name": "owner",
          "type": "address"
        },
        {
          "indexed": false,
          "internalType": "uint256",
          "name": "id",
          "type": "uint256"
        },
        {
          "indexed": false,
          "internalType": "string",
          "name": "name",
          "type": "string"
        },
        {
          "indexed": false,
          "internalType": "uint256",
          "name": "level",
          "type": "uint256"
        }
      ],
      "name": "NewInsignia",
      "type": "event"
    },
    {
      "anonymous": false,
      "inputs": [
        {
          "indexed": true,
          "internalType": "address",
          "name": "previousOwner",
          "type": "address"
        },
        {
          "indexed": true,
          "internalType": "address",
          "name": "newOwner",
          "type": "address"
        }
      ],
      "name": "OwnershipTransferred",
      "type": "event"
    },
    {
      "anonymous": false,
      "inputs": [
        {
          "indexed": false,
          "internalType": "address",
          "name": "account",
          "type": "address"
        }
      ],
      "name": "Paused",
      "type": "event"
    },
    {
      "anonymous": false,
      "inputs": [
        {
          "indexed": true,
          "internalType": "address",
          "name": "from",
          "type": "address"
        },
        {
          "indexed": true,
          "internalType": "address",
          "name": "to",
          "type": "address"
        },
        {
          "indexed": true,
          "internalType": "uint256",
          "name": "tokenId",
          "type": "uint256"
        }
      ],
      "name": "Transfer",
      "type": "event"
    },
    {
      "anonymous": false,
      "inputs": [
        {
          "indexed": false,
          "internalType": "address",
          "name": "account",
          "type": "address"
        }
      ],
      "name": "Unpaused",
      "type": "event"
    },
    {
      "inputs": [
        {
          "internalType": "address",
          "name": "to",
          "type": "address"
        },
        {
          "internalType": "uint256",
          "name": "tokenId",
          "type": "uint256"
        }
      ],
      "name": "approve",
      "outputs": [],
      "stateMutability": "nonpayable",
      "type": "function"
    },
    {
      "inputs": [
        {
          "internalType": "address",
          "name": "owner",
          "type": "address"
        }
      ],
      "name": "balanceOf",
      "outputs": [
        {
          "internalType": "uint256",
          "name": "",
          "type": "uint256"
        }
      ],
      "stateMutability": "view",
      "type": "function"
    },
    {
      "inputs": [
        {
          "internalType": "string",
          "name": "_name",
          "type": "string"
        },
        {
          "internalType": "string",
          "name": "tokenURI",
          "type": "string"
        }
      ],
      "name": "createInsignia",
      "outputs": [],
      "stateMutability": "payable",
      "type": "function"
    },
    {
      "inputs": [
        {
          "internalType": "uint256",
          "name": "tokenId",
          "type": "uint256"
        }
      ],
      "name": "getApproved",
      "outputs": [
        {
          "internalType": "address",
          "name": "",
          "type": "address"
        }
      ],
      "stateMutability": "view",
      "type": "function"
    },
    {
      "inputs": [],
      "name": "getInsignias",
      "outputs": [
        {
          "components": [
            {
              "internalType": "string",
              "name": "name",
              "type": "string"
            },
            {
              "internalType": "uint256",
              "name": "id",
              "type": "uint256"
            },
            {
              "internalType": "uint256",
              "name": "level",
              "type": "uint256"
            }
          ],
          "internalType": "struct Insignia.Insig[]",
          "name": "",
          "type": "tuple[]"
        }
      ],
      "stateMutability": "view",
      "type": "function"
    },
    {
      "inputs": [],
      "name": "getMintingPrice",
      "outputs": [
        {
          "internalType": "uint256",
          "name": "",
          "type": "uint256"
        }
      ],
      "stateMutability": "view",
      "type": "function"
    },
    {
      "inputs": [
        {
          "internalType": "address",
          "name": "_owner",
          "type": "address"
        }
      ],
      "name": "getOwnerInsignias",
      "outputs": [
        {
          "components": [
            {
              "internalType": "string",
              "name": "name",
              "type": "string"
            },
            {
              "internalType": "uint256",
              "name": "id",
              "type": "uint256"
            },
            {
              "internalType": "uint256",
              "name": "level",
              "type": "uint256"
            }
          ],
          "internalType": "struct Insignia.Insig[]",
          "name": "",
          "type": "tuple[]"
        }
      ],
      "stateMutability": "view",
      "type": "function"
    },
    {
      "inputs": [
        {
          "internalType": "uint256",
          "name": "",
          "type": "uint256"
        }
      ],
      "name": "insignias",
      "outputs": [
        {
          "internalType": "string",
          "name": "name",
          "type": "string"
        },
        {
          "internalType": "uint256",
          "name": "id",
          "type": "uint256"
        },
        {
          "internalType": "uint256",
          "name": "level",
          "type": "uint256"
        }
      ],
      "stateMutability": "view",
      "type": "function"
    },
    {
      "inputs": [
        {
          "internalType": "address",
          "name": "owner",
          "type": "address"
        },
        {
          "internalType": "address",
          "name": "operator",
          "type": "address"
        }
      ],
      "name": "isApprovedForAll",
      "outputs": [
        {
          "internalType": "bool",
          "name": "",
          "type": "bool"
        }
      ],
      "stateMutability": "view",
      "type": "function"
    },
    {
      "inputs": [],
      "name": "name",
      "outputs": [
        {
          "internalType": "string",
          "name": "",
          "type": "string"
        }
      ],
      "stateMutability": "view",
      "type": "function"
    },
    {
      "inputs": [],
      "name": "owner",
      "outputs": [
        {
          "internalType": "address",
          "name": "",
          "type": "address"
        }
      ],
      "stateMutability": "view",
      "type": "function"
    },
    {
      "inputs": [
        {
          "internalType": "uint256",
          "name": "tokenId",
          "type": "uint256"
        }
      ],
      "name": "ownerOf",
      "outputs": [
        {
          "internalType": "address",
          "name": "",
          "type": "address"
        }
      ],
      "stateMutability": "view",
      "type": "function"
    },
    {
      "inputs": [],
      "name": "pause",
      "outputs": [],
      "stateMutability": "nonpayable",
      "type": "function"
    },
    {
      "inputs": [],
      "name": "paused",
      "outputs": [
        {
          "internalType": "bool",
          "name": "",
          "type": "bool"
        }
      ],
      "stateMutability": "view",
      "type": "function"
    },
    {
      "inputs": [],
      "name": "renounceOwnership",
      "outputs": [],
      "stateMutability": "nonpayable",
      "type": "function"
    },
    {
      "inputs": [
        {
          "internalType": "address",
          "name": "from",
          "type": "address"
        },
        {
          "internalType": "address",
          "name": "to",
          "type": "address"
        },
        {
          "internalType": "uint256",
          "name": "tokenId",
          "type": "uint256"
        }
      ],
      "name": "safeTransferFrom",
      "outputs": [],
      "stateMutability": "nonpayable",
      "type": "function"
    },
    {
      "inputs": [
        {
          "internalType": "address",
          "name": "from",
          "type": "address"
        },
        {
          "internalType": "address",
          "name": "to",
          "type": "address"
        },
        {
          "internalType": "uint256",
          "name": "tokenId",
          "type": "uint256"
        },
        {
          "internalType": "bytes",
          "name": "data",
          "type": "bytes"
        }
      ],
      "name": "safeTransferFrom",
      "outputs": [],
      "stateMutability": "nonpayable",
      "type": "function"
    },
    {
      "inputs": [
        {
          "internalType": "address",
          "name": "operator",
          "type": "address"
        },
        {
          "internalType": "bool",
          "name": "approved",
          "type": "bool"
        }
      ],
      "name": "setApprovalForAll",
      "outputs": [],
      "stateMutability": "nonpayable",
      "type": "function"
    },
    {
      "inputs": [
        {
          "internalType": "bytes4",
          "name": "interfaceId",
          "type": "bytes4"
        }
      ],
      "name": "supportsInterface",
      "outputs": [
        {
          "internalType": "bool",
          "name": "",
          "type": "bool"
        }
      ],
      "stateMutability": "view",
      "type": "function"
    },
    {
      "inputs": [],
      "name": "symbol",
      "outputs": [
        {
          "internalType": "string",
          "name": "",
          "type": "string"
        }
      ],
      "stateMutability": "view",
      "type": "function"
    },
    {
      "inputs": [
        {
          "internalType": "uint256",
          "name": "tokenId",
          "type": "uint256"
        }
      ],
      "name": "tokenURI",
      "outputs": [
        {
          "internalType": "string",
          "name": "",
          "type": "string"
        }
      ],
      "stateMutability": "view",
      "type": "function"
    },
    {
      "inputs": [
        {
          "internalType": "address",
          "name": "from",
          "type": "address"
        },
        {
          "internalType": "address",
          "name": "to",
          "type": "address"
        },
        {
          "internalType": "uint256",
          "name": "tokenId",
          "type": "uint256"
        }
      ],
      "name": "transferFrom",
      "outputs": [],
      "stateMutability": "nonpayable",
      "type": "function"
    },
    {
      "inputs": [
        {
          "internalType": "address",
          "name": "newOwner",
          "type": "address"
        }
      ],
      "name": "transferOwnership",
      "outputs": [],
      "stateMutability": "nonpayable",
      "type": "function"
    },
    {
      "inputs": [],
      "name": "unpause",
      "outputs": [],
      "stateMutability": "nonpayable",
      "type": "function"
    },
    {
      "inputs": [
        {
          "internalType": "uint256",
          "name": "_fee",
          "type": "uint256"
        }
      ],
      "name": "updateFee",
      "outputs": [],
      "stateMutability": "nonpayable",
      "type": "function"
    }
  ],
  "bytecode": "0x608060405266044364c5bb00006009553480156200001c57600080fd5b5060405180604001604052806008815260200167494e5349474e494160c01b81525060405180604001604052806003815260200162494e5360e81b81525081600090816200006b919062000197565b5060016200007a828262000197565b50506007805460ff1916905550620000923362000098565b62000263565b600780546001600160a01b03838116610100818102610100600160a81b031985161790945560405193909204169182907f8be0079c531659141344cd1fd0a4f28419497f9722a3daafe3b4186f6b6457e090600090a35050565b634e487b7160e01b600052604160045260246000fd5b600181811c908216806200011d57607f821691505b6020821081036200013e57634e487b7160e01b600052602260045260246000fd5b50919050565b601f8211156200019257600081815260208120601f850160051c810160208610156200016d5750805b601f850160051c820191505b818110156200018e5782815560010162000179565b5050505b505050565b81516001600160401b03811115620001b357620001b3620000f2565b620001cb81620001c4845462000108565b8462000144565b602080601f831160018114620002035760008415620001ea5750858301515b600019600386901b1c1916600185901b1785556200018e565b600085815260208120601f198616915b82811015620002345788860151825594840194600190910190840162000213565b5085821015620002535787850151600019600388901b60f8161c191681555b5050505050600190811b01905550565b61219a80620002736000396000f3fe6080604052600436106101665760003560e01c806377d24762116100d1578063b88d4fde1161008a578063e985e9c511610064578063e985e9c51461042a578063ee25a0641461044a578063f2fde38b1461045d578063fa0967741461047d57600080fd5b8063b88d4fde146103bb578063c0394d37146103db578063c87b56dd1461040a57600080fd5b806377d24762146103195780638456cb591461032e5780638da5cb5b146103435780639012c4a81461036657806395d89b4114610386578063a22cb4651461039b57600080fd5b806342842e0e1161012357806342842e0e146102515780635c975abb146102715780636352211e146102895780636d01dc37146102a957806370a08231146102d6578063715018a61461030457600080fd5b806301ffc9a71461016b57806306fdde03146101a0578063081812fc146101c2578063095ea7b3146101fa57806323b872dd1461021c5780633f4ba83a1461023c575b600080fd5b34801561017757600080fd5b5061018b610186366004611a44565b610492565b60405190151581526020015b60405180910390f35b3480156101ac57600080fd5b506101b56104e4565b6040516101979190611ab1565b3480156101ce57600080fd5b506101e26101dd366004611ac4565b610576565b6040516001600160a01b039091168152602001610197565b34801561020657600080fd5b5061021a610215366004611af9565b61059d565b005b34801561022857600080fd5b5061021a610237366004611b23565b6106b7565b34801561024857600080fd5b5061021a6106e8565b34801561025d57600080fd5b5061021a61026c366004611b23565b6106fa565b34801561027d57600080fd5b5060075460ff1661018b565b34801561029557600080fd5b506101e26102a4366004611ac4565b610715565b3480156102b557600080fd5b506102c96102c4366004611b5f565b610775565b6040516101979190611b7a565b3480156102e257600080fd5b506102f66102f1366004611b5f565b61093a565b604051908152602001610197565b34801561031057600080fd5b5061021a6109c0565b34801561032557600080fd5b506009546102f6565b34801561033a57600080fd5b5061021a6109d2565b34801561034f57600080fd5b5060075461010090046001600160a01b03166101e2565b34801561037257600080fd5b5061021a610381366004611ac4565b6109e2565b34801561039257600080fd5b506101b56109ef565b3480156103a757600080fd5b5061021a6103b6366004611bfb565b6109fe565b3480156103c757600080fd5b5061021a6103d6366004611cc3565b610a0d565b3480156103e757600080fd5b506103fb6103f6366004611ac4565b610a45565b60405161019793929190611d3f565b34801561041657600080fd5b506101b5610425366004611ac4565b610b07565b34801561043657600080fd5b5061018b610445366004611d64565b610c17565b61021a610458366004611db7565b610c45565b34801561046957600080fd5b5061021a610478366004611b5f565b610c66565b34801561048957600080fd5b506102c9610cdf565b60006001600160e01b031982166380ac58cd60e01b14806104c357506001600160e01b03198216635b5e139f60e01b145b806104de57506301ffc9a760e01b6001600160e01b03198316145b92915050565b6060600080546104f390611e1b565b80601f016020809104026020016040519081016040528092919081815260200182805461051f90611e1b565b801561056c5780601f106105415761010080835404028352916020019161056c565b820191906000526020600020905b81548152906001019060200180831161054f57829003601f168201915b5050505050905090565b600061058182610de4565b506000908152600460205260409020546001600160a01b031690565b60006105a882610715565b9050806001600160a01b0316836001600160a01b03160361061a5760405162461bcd60e51b815260206004820152602160248201527f4552433732313a20617070726f76616c20746f2063757272656e74206f776e656044820152603960f91b60648201526084015b60405180910390fd5b336001600160a01b038216148061063657506106368133610c17565b6106a85760405162461bcd60e51b815260206004820152603d60248201527f4552433732313a20617070726f76652063616c6c6572206973206e6f7420746f60448201527f6b656e206f776e6572206f7220617070726f76656420666f7220616c6c0000006064820152608401610611565b6106b28383610e43565b505050565b6106c13382610eb1565b6106dd5760405162461bcd60e51b815260040161061190611e55565b6106b2838383610f0f565b6106f0611080565b6106f86110e0565b565b6106b283838360405180602001604052806000815250610a0d565b6000818152600260205260408120546001600160a01b0316806104de5760405162461bcd60e51b8152602060048201526018602482015277115490cdcc8c4e881a5b9d985b1a59081d1bdad95b88125160421b6044820152606401610611565b606060006107828361093a565b67ffffffffffffffff81111561079a5761079a611c37565b6040519080825280602002602001820160405280156107ef57816020015b6107dc60405180606001604052806060815260200160008152602001600081525090565b8152602001906001900390816107b85790505b5090506000805b600a5481101561093157846001600160a01b031661081382610715565b6001600160a01b03160361091f57600a818154811061083457610834611ea2565b906000526020600020906003020160405180606001604052908160008201805461085d90611e1b565b80601f016020809104026020016040519081016040528092919081815260200182805461088990611e1b565b80156108d65780601f106108ab576101008083540402835291602001916108d6565b820191906000526020600020905b8154815290600101906020018083116108b957829003601f168201915b505050505081526020016001820154815260200160028201548152505083838151811061090557610905611ea2565b6020026020010181905250818061091b90611ece565b9250505b8061092981611ece565b9150506107f6565b50909392505050565b60006001600160a01b0382166109a45760405162461bcd60e51b815260206004820152602960248201527f4552433732313a2061646472657373207a65726f206973206e6f7420612076616044820152683634b21037bbb732b960b91b6064820152608401610611565b506001600160a01b031660009081526003602052604090205490565b6109c8611080565b6106f86000611132565b6109da611080565b6106f861118c565b6109ea611080565b600955565b6060600180546104f390611e1b565b610a093383836111c9565b5050565b610a173383610eb1565b610a335760405162461bcd60e51b815260040161061190611e55565b610a3f84848484611297565b50505050565b600a8181548110610a5557600080fd5b9060005260206000209060030201600091509050806000018054610a7890611e1b565b80601f0160208091040260200160405190810160405280929190818152602001828054610aa490611e1b565b8015610af15780601f10610ac657610100808354040283529160200191610af1565b820191906000526020600020905b815481529060010190602001808311610ad457829003601f168201915b5050505050908060010154908060020154905083565b6060610b1282610de4565b60008281526006602052604081208054610b2b90611e1b565b80601f0160208091040260200160405190810160405280929190818152602001828054610b5790611e1b565b8015610ba45780601f10610b7957610100808354040283529160200191610ba4565b820191906000526020600020905b815481529060010190602001808311610b8757829003601f168201915b505050505090506000610bc260408051602081019091526000815290565b90508051600003610bd4575092915050565b815115610c06578082604051602001610bee929190611ee7565b60405160208183030381529060405292505050919050565b610c0f846112ca565b949350505050565b6001600160a01b03918216600090815260056020908152604080832093909416825291909152205460ff1690565b610c4d61133e565b600954341015610c5c57600080fd5b610a098282611384565b610c6e611080565b6001600160a01b038116610cd35760405162461bcd60e51b815260206004820152602660248201527f4f776e61626c653a206e6577206f776e657220697320746865207a65726f206160448201526564647265737360d01b6064820152608401610611565b610cdc81611132565b50565b6060600a805480602002602001604051908101604052809291908181526020016000905b82821015610ddb5783829060005260206000209060030201604051806060016040529081600082018054610d3690611e1b565b80601f0160208091040260200160405190810160405280929190818152602001828054610d6290611e1b565b8015610daf5780601f10610d8457610100808354040283529160200191610daf565b820191906000526020600020905b815481529060010190602001808311610d9257829003601f168201915b505050505081526020016001820154815260200160028201548152505081526020019060010190610d03565b50505050905090565b6000818152600260205260409020546001600160a01b0316610cdc5760405162461bcd60e51b8152602060048201526018602482015277115490cdcc8c4e881a5b9d985b1a59081d1bdad95b88125160421b6044820152606401610611565b600081815260046020526040902080546001600160a01b0319166001600160a01b0384169081179091558190610e7882610715565b6001600160a01b03167f8c5be1e5ebec7d5bd14f71427d1e84f3dd0314c0f7b2291e5b200ac8c7c3b92560405160405180910390a45050565b600080610ebd83610715565b9050806001600160a01b0316846001600160a01b03161480610ee45750610ee48185610c17565b80610c0f5750836001600160a01b0316610efd84610576565b6001600160a01b031614949350505050565b826001600160a01b0316610f2282610715565b6001600160a01b031614610f485760405162461bcd60e51b815260040161061190611f16565b6001600160a01b038216610faa5760405162461bcd60e51b8152602060048201526024808201527f4552433732313a207472616e7366657220746f20746865207a65726f206164646044820152637265737360e01b6064820152608401610611565b610fb78383836001611478565b826001600160a01b0316610fca82610715565b6001600160a01b031614610ff05760405162461bcd60e51b815260040161061190611f16565b600081815260046020908152604080832080546001600160a01b03199081169091556001600160a01b0387811680865260038552838620805460001901905590871680865283862080546001019055868652600290945282852080549092168417909155905184937fddf252ad1be2c89b69c2b068fc378daa952ba7f163c4a11628f55a4df523b3ef91a4505050565b6007546001600160a01b036101009091041633146106f85760405162461bcd60e51b815260206004820181905260248201527f4f776e61626c653a2063616c6c6572206973206e6f7420746865206f776e65726044820152606401610611565b6110e8611500565b6007805460ff191690557f5db9ee0a495bf2e6ff9c91a7834c1ba4fdd244a5e8aa4e537bd38aeae4b073aa335b6040516001600160a01b03909116815260200160405180910390a1565b600780546001600160a01b03838116610100818102610100600160a81b031985161790945560405193909204169182907f8be0079c531659141344cd1fd0a4f28419497f9722a3daafe3b4186f6b6457e090600090a35050565b61119461133e565b6007805460ff191660011790557f62e78cea01bee320cd4e420270b5ea74000d11b0c9f74754ebdbfc544b05a2586111153390565b816001600160a01b0316836001600160a01b03160361122a5760405162461bcd60e51b815260206004820152601960248201527f4552433732313a20617070726f766520746f2063616c6c6572000000000000006044820152606401610611565b6001600160a01b03838116600081815260056020908152604080832094871680845294825291829020805460ff191686151590811790915591519182527f17307eab39ab6107e8899845ad3d59bd9653f200f220920489ca2b5937696c31910160405180910390a3505050565b6112a2848484610f0f565b6112ae84848484611549565b610a3f5760405162461bcd60e51b815260040161061190611f5b565b60606112d582610de4565b60006112ec60408051602081019091526000815290565b9050600081511161130c5760405180602001604052806000815250611337565b806113168461164a565b604051602001611327929190611ee7565b6040516020818303038152906040525b9392505050565b60075460ff16156106f85760405162461bcd60e51b815260206004820152601060248201526f14185d5cd8589b194e881c185d5cd95960821b6044820152606401610611565b6040805160608101825283815260085460208201526001918101829052600a8054928301815560005280519091829160039091027fc65a7bb8d6351c1cf70c95a316cc6a92839c986682d98bc35f958f4883f9d2a8019081906113e79082611ffb565b506020820151816001015560408201518160020155505061140a336008546116dd565b611416600854836116f7565b336001600160a01b03167f02828f84598dec2625cd3b939b874d4fbf7c043d4de92d869baf4971b8bebd0b600854856001604051611456939291906120bb565b60405180910390a26008805490600061146e83611ece565b9190505550505050565b6001811115610a3f576001600160a01b038416156114be576001600160a01b038416600090815260036020526040812080548392906114b89084906120e4565b90915550505b6001600160a01b03831615610a3f576001600160a01b038316600090815260036020526040812080548392906114f59084906120f7565b909155505050505050565b60075460ff166106f85760405162461bcd60e51b815260206004820152601460248201527314185d5cd8589b194e881b9bdd081c185d5cd95960621b6044820152606401610611565b60006001600160a01b0384163b1561163f57604051630a85bd0160e11b81526001600160a01b0385169063150b7a029061158d90339089908890889060040161210a565b6020604051808303816000875af19250505080156115c8575060408051601f3d908101601f191682019092526115c591810190612147565b60015b611625573d8080156115f6576040519150601f19603f3d011682016040523d82523d6000602084013e6115fb565b606091505b50805160000361161d5760405162461bcd60e51b815260040161061190611f5b565b805181602001fd5b6001600160e01b031916630a85bd0160e11b149050610c0f565b506001949350505050565b606060006116578361178a565b600101905060008167ffffffffffffffff81111561167757611677611c37565b6040519080825280601f01601f1916602001820160405280156116a1576020820181803683370190505b5090508181016020015b600019016f181899199a1a9b1b9c1cb0b131b232b360811b600a86061a8153600a85049450846116ab57509392505050565b610a09828260405180602001604052806000815250611862565b6000828152600260205260409020546001600160a01b03166117725760405162461bcd60e51b815260206004820152602e60248201527f45524337323155524953746f726167653a2055524920736574206f66206e6f6e60448201526d32bc34b9ba32b73a103a37b5b2b760911b6064820152608401610611565b60008281526006602052604090206106b28282611ffb565b60008072184f03e93ff9f4daa797ed6e38ed64bf6a1f0160401b83106117c95772184f03e93ff9f4daa797ed6e38ed64bf6a1f0160401b830492506040015b6d04ee2d6d415b85acef810000000083106117f5576d04ee2d6d415b85acef8100000000830492506020015b662386f26fc10000831061181357662386f26fc10000830492506010015b6305f5e100831061182b576305f5e100830492506008015b612710831061183f57612710830492506004015b60648310611851576064830492506002015b600a83106104de5760010192915050565b61186c8383611895565b6118796000848484611549565b6106b25760405162461bcd60e51b815260040161061190611f5b565b6001600160a01b0382166118eb5760405162461bcd60e51b815260206004820181905260248201527f4552433732313a206d696e7420746f20746865207a65726f20616464726573736044820152606401610611565b6000818152600260205260409020546001600160a01b0316156119505760405162461bcd60e51b815260206004820152601c60248201527f4552433732313a20746f6b656e20616c7265616479206d696e746564000000006044820152606401610611565b61195e600083836001611478565b6000818152600260205260409020546001600160a01b0316156119c35760405162461bcd60e51b815260206004820152601c60248201527f4552433732313a20746f6b656e20616c7265616479206d696e746564000000006044820152606401610611565b6001600160a01b038216600081815260036020908152604080832080546001019055848352600290915280822080546001600160a01b0319168417905551839291907fddf252ad1be2c89b69c2b068fc378daa952ba7f163c4a11628f55a4df523b3ef908290a45050565b6001600160e01b031981168114610cdc57600080fd5b600060208284031215611a5657600080fd5b813561133781611a2e565b60005b83811015611a7c578181015183820152602001611a64565b50506000910152565b60008151808452611a9d816020860160208601611a61565b601f01601f19169290920160200192915050565b6020815260006113376020830184611a85565b600060208284031215611ad657600080fd5b5035919050565b80356001600160a01b0381168114611af457600080fd5b919050565b60008060408385031215611b0c57600080fd5b611b1583611add565b946020939093013593505050565b600080600060608486031215611b3857600080fd5b611b4184611add565b9250611b4f60208501611add565b9150604084013590509250925092565b600060208284031215611b7157600080fd5b61133782611add565b60006020808301818452808551808352604092508286019150828160051b87010184880160005b83811015611bed57603f19898403018552815160608151818652611bc782870182611a85565b838b0151878c015292890151958901959095525094870194925090860190600101611ba1565b509098975050505050505050565b60008060408385031215611c0e57600080fd5b611c1783611add565b915060208301358015158114611c2c57600080fd5b809150509250929050565b634e487b7160e01b600052604160045260246000fd5b600067ffffffffffffffff80841115611c6857611c68611c37565b604051601f8501601f19908116603f01168101908282118183101715611c9057611c90611c37565b81604052809350858152868686011115611ca957600080fd5b858560208301376000602087830101525050509392505050565b60008060008060808587031215611cd957600080fd5b611ce285611add565b9350611cf060208601611add565b925060408501359150606085013567ffffffffffffffff811115611d1357600080fd5b8501601f81018713611d2457600080fd5b611d3387823560208401611c4d565b91505092959194509250565b606081526000611d526060830186611a85565b60208301949094525060400152919050565b60008060408385031215611d7757600080fd5b611d8083611add565b9150611d8e60208401611add565b90509250929050565b600082601f830112611da857600080fd5b61133783833560208501611c4d565b60008060408385031215611dca57600080fd5b823567ffffffffffffffff80821115611de257600080fd5b611dee86838701611d97565b93506020850135915080821115611e0457600080fd5b50611e1185828601611d97565b9150509250929050565b600181811c90821680611e2f57607f821691505b602082108103611e4f57634e487b7160e01b600052602260045260246000fd5b50919050565b6020808252602d908201527f4552433732313a2063616c6c6572206973206e6f7420746f6b656e206f776e6560408201526c1c881bdc88185c1c1c9bdd9959609a1b606082015260800190565b634e487b7160e01b600052603260045260246000fd5b634e487b7160e01b600052601160045260246000fd5b600060018201611ee057611ee0611eb8565b5060010190565b60008351611ef9818460208801611a61565b835190830190611f0d818360208801611a61565b01949350505050565b60208082526025908201527f4552433732313a207472616e736665722066726f6d20696e636f72726563742060408201526437bbb732b960d91b606082015260800190565b60208082526032908201527f4552433732313a207472616e7366657220746f206e6f6e20455243373231526560408201527131b2b4bb32b91034b6b83632b6b2b73a32b960711b606082015260800190565b601f8211156106b257600081815260208120601f850160051c81016020861015611fd45750805b601f850160051c820191505b81811015611ff357828155600101611fe0565b505050505050565b815167ffffffffffffffff81111561201557612015611c37565b612029816120238454611e1b565b84611fad565b602080601f83116001811461205e57600084156120465750858301515b600019600386901b1c1916600185901b178555611ff3565b600085815260208120601f198616915b8281101561208d5788860151825594840194600190910190840161206e565b50858210156120ab5787850151600019600388901b60f8161c191681555b5050505050600190811b01905550565b8381526060602082015260006120d46060830185611a85565b9050826040830152949350505050565b818103818111156104de576104de611eb8565b808201808211156104de576104de611eb8565b6001600160a01b038581168252841660208201526040810183905260806060820181905260009061213d90830184611a85565b9695505050505050565b60006020828403121561215957600080fd5b815161133781611a2e56fea2646970667358221220bbfaba1471f4e1dffedb9d3051e01168bdd2498838ee9147ef43cae1a091502064736f6c63430008110033",
  "linkReferences": {},
  "deployedLinkReferences": {}
}